:100000000C9461000C947E000C947E000C947E0095
:100010000C947E000C947E000C947E000C947E0068
:100020000C947E000C947E000C947E000C947E0058
:100030000C947E000C947E000C947E000C947E0048
:100040000C947D010C947E000C947E000C947E0038
:100050000C947E000C947E000C947E000C947E0028
:100060000C947E000C947E0000000000230026000B
:10007000290000000008000201000003040700003E
:1000800000000000000000000000250028002B00F8
:1000900000000000240027002A00040404040404D3
:1000A0000404020202020202030303030303010227
:1000B00004081020408001020408102001020408F6
:1000C000102011241FBECFEFD8E0DEBFCDBF11E05E
:1000D000A0E0B1E0E0E3F6E002C005900D92AE31A1
:1000E000B107D9F721E0AEE1B1E001C01D92A7321E
:1000F000B207E1F70E94C7010C9416030C940000AC
:10010000833081F028F4813099F08230A9F008958D
:100110008730A9F08830C9F08430B1F48091800034
:100120008F7D03C0809180008F7780938000089539
:1001300084B58F7784BD089584B58F7DFBCF809182
:10014000B0008F778093B00008958091B0008F7DCC
:10015000F9CF3FB7F8948091230190912401A091A9
:100160002501B091260126B5A89B05C02F3F19F0A7
:100170000196A11DB11D3FBFBA2FA92F982F882727
:10018000BC01CD01620F711D811D911D42E0660F02
:10019000771F881F991F4A95D1F708950C94A900DD
:1001A00081E00895CF92DF92EF92FF920F931F9319
:1001B000CF93DF93EC018A819B81DC01ED91FC916F
:1001C0000190F081E02D0995C884D984EA84FB84EC
:1001D0000C811D812E813F81AB01BC014C195D0951
:1001E0006E097F09401751076207730720F3D70193
:1001F000C601800F911FA21FB31F88879987AA8706
:10020000BB87DF91CF911F910F91FF90EF90DF900F
:10021000CF9008950F931F93CF93DF93FC0122811A
:1002200033813327F901EE58FF4F8491F901E255EC
:10023000FF4FD491F901E656FF4FC491CC23A9F0AA
:100240008B0181110E948000EC2FF0E0EE0FFF1F68
:10025000EA57FF4FA591B4918FB7F894EC91012B19
:1002600049F4D095DE23DC938FBFDF91CF911F91AE
:100270000F910895DE2BF7CF0F931F93CF93DF934A
:100280008C01EB0161E070E00E940A01CE010E9446
:10029000D20070E060E0C8010E940A01CE01DF9147
:1002A000CF911F910F910C94D200CF93DF93FC015B
:1002B000228133813327F901EE58FF4F8491F901F0
:1002C000E255FF4FD491F901E656FF4FC491CC237C
:1002D00079F081110E948000EC2FF0E0EE0FFF1FFB
:1002E000E859FF4FA591B491EC91ED2381E009F419
:1002F00080E08170DF91CF9108951F920F920FB629
:100300000F9211242F933F938F939F93AF93BF939B
:1003100080911F0190912001A0912101B0912201B3
:1003200030911E0123E0230F2D3758F50196A11DB2
:10033000B11D20931E0180931F0190932001A09373
:100340002101B09322018091230190912401A09179
:100350002501B09126010196A11DB11D80932301B5
:1003600090932401A0932501B0932601BF91AF91F2
:100370009F918F913F912F910F900FBE0F901F90E3
:10038000189526E8230F0296A11DB11DD2CFCF9359
:10039000DF93CDB7DEB7A4970FB6F894DEBF0FBEDC
:1003A000CDBF789484B5826084BD84B5816084BDFE
:1003B00085B5826085BD85B5816085BD80916E0003
:1003C000816080936E001092810080918100826034
:1003D0008093810080918100816080938100809171
:1003E00080008160809380008091B1008460809360
:1003F000B1008091B00081608093B00080917A005C
:10040000846080937A0080917A00826080937A0081
:1004100080917A00816080937A0080917A00806870
:1004200080937A001092C10086E191E09A8F898FC3
:1004300080E191E09C8F8B8F84E091E09E8F8D8F87
:1004400085E090E098A38F8FE3EBF0E02491EFE953
:10045000F0E084918823C9F090E0880F991FFC0197
:10046000E057FF4F45915491FC01EA57FF4FA5918A
:10047000B4919FB7F894FA018081209582238083FC
:100480008C91E22FE823EC939FBF8AE091E09AA33E
:1004900089A38DE090E09CA38BA3EBEBF0E024918B
:1004A000E7EAF0E08491882399F090E0880F991FA3
:1004B000FC01E057FF4FA591B491FC01EA57FF4FB3
:1004C000859194918FB7F894EC91E22BEC938FBFC8
:1004D0008CE1282E81E0382E8E01055E1F4F90EAB8
:1004E000C92E96E8D92EEE24E394F12C20EE822E2C
:1004F00023E9922E24E0A22EB12C3E862D86188B65
:100500000F87C98ADA8AEB8AFC8A0E94A9006D8B60
:100510007E8B8F8B988F3A8229821C830B838D82EE
:100520009E82AF82B8860E94A90069877A878B87EE
:100530009C87BE01635F7F4FCE0181960E943C0184
:10054000BE01635F7F4FCE0181960E943C01BE01D8
:10055000635F7F4FCE0181960E943C018D899E8909
:10056000AF89B88D89879A87AB87BC87CE01019602
:100570000E94D200BE016F5F7F4FCE0181960E9424
:100580003C01BE016F5F7F4FCE0181960E943C010E
:10059000BE016F5F7F4FCE0181960E943C01CE016C
:1005A00001960E94D20089859A85AB85BC858D8B8A
:1005B0009E8BAF8BB88FBE01635F7F4FCE0181965C
:1005C0000E943C01BE01635F7F4FCE0181960E9475
:1005D0003C01BE01635F7F4FCE0181960E943C01CA
:1005E0008D899E89AF89B88D89879A87AB87BC87AB
:1005F000CE0101960E94D200EB8DFC8D0190F0811E
:10060000E02DC80109952B013C01EB8DFC8D01907B
:10061000F081E02DC80109956419750986099709CB
:10062000603472448F40910580F367CFF894FFCF18
:10063000000000005501000000000A010000000059
:0E064000CE0000000000D00000000000D2003C
:00000001FF
