:100000000C9461000C947E000C947E000C947E0095
:100010000C947E000C947E000C947E000C947E0068
:100020000C947E000C947E000C947E000C947E0058
:100030000C947E000C947E000C947E000C947E0048
:100040000C9407010C947E000C947E000C947E00AE
:100050000C947E000C947E000C947E000C947E0028
:100060000C947E000C947E0000000000230026000B
:10007000290000000008000201000003040700003E
:1000800000000000000000000000250028002B00F8
:1000900000000000240027002A00040404040404D3
:1000A0000404020202020202030303030303010227
:1000B00004081020408001020408102001020408F6
:1000C000102011241FBECFEFD8E0DEBFCDBF11E05E
:1000D000A0E0B1E0EEEEF3E002C005900D92A23197
:1000E000B107D9F721E0A2E1B1E001C01D92AB3127
:1000F000B207E1F70E9451010C94F5010C94000045
:10010000833081F028F4813099F08230A9F008958D
:100110008730A9F08830C9F08430B1F48091800034
:100120008F7D03C0809180008F7780938000089539
:1001300084B58F7784BD089584B58F7DFBCF809182
:10014000B0008F778093B00008958091B0008F7DCC
:10015000F9CF60E070E0CB0108950F931F93CF9328
:10016000DF93FC01228133813327F901EE58FF4FE1
:100170008491F901E255FF4FD491F901E656FF4F02
:10018000C491CC23A9F08B0181110E948000EC2F37
:10019000F0E0EE0FFF1FEA57FF4FA591B4918FB724
:1001A000F894EC91012B49F4D095DE23DC938FBFBA
:1001B000DF91CF911F910F910895DE2BF7CFCF9351
:1001C000DF93FC01228133813327F901EE58FF4F81
:1001D0008491F901E255FF4FD491F901E656FF4FA2
:1001E000C491CC2379F081110E948000EC2FF0E0C3
:1001F000EE0FFF1FE859FF4FA591B491EC91ED234D
:1002000081E009F480E08170DF91CF9108951F9221
:100210000F920FB60F9211242F933F938F939F93BA
:10022000AF93BF938091170190911801A09119018C
:10023000B0911A013091160123E0230F2D3758F5A4
:100240000196A11DB11D2093160180931701909373
:100250001801A0931901B0931A0180911201909195
:100260001301A0911401B09115010196A11DB11DBA
:100270008093120190931301A0931401B093150180
:10028000BF91AF919F918F913F912F910F900FBE92
:100290000F901F90189526E8230F0296A11DB11DFF
:1002A000D2CFCF93DF93CDB7DEB72A970FB6F894AE
:1002B000DEBF0FBECDBF789484B5826084BD84B5A7
:1002C000816084BD85B5826085BD85B5816085BD51
:1002D00080916E00816080936E0010928100809109
:1002E0008100826080938100809181008160809391
:1002F0008100809180008160809380008091B100B6
:1003000084608093B1008091B00081608093B000E0
:1003100080917A00846080937A0080917A00826074
:1003200080937A0080917A00816080937A00809136
:100330007A00806880937A001092C10080E191E099
:100340009A83898384E091E09C838B8385E090E0AD
:100350009E838D83E3EBF0E02491EFE9F0E084915C
:100360008823C9F090E0880F991FFC01E057FF4FE8
:1003700045915491FC01EA57FF4FA591B4919FB765
:10038000F894FA0180812095822380838C91E22F5A
:10039000E823EC939FBF8AE091E098878F838DE0FC
:1003A00090E09A878987EBEBF0E02491E7EAF0E0B0
:1003B0008491882399F090E0880F991FFC01E05701
:1003C000FF4FA591B491FC01EA57FF4F859194919D
:1003D0008FB7F894EC91E22BEC938FBF61E070E063
:0E03E000CE0107960E94AD00F9CFF894FFCF32
:1003EE0000000000DF0000000000AD000000000073
:0203FE00A90054
:00000001FF
