:100000000C9461000C947E000C947E000C947E0095
:100010000C947E000C947E000C947E000C947E0068
:100020000C947E000C947E000C947E000C947E0058
:100030000C947E000C947E000C947E000C947E0048
:100040000C947F010C947E000C947E000C947E0036
:100050000C947E000C947E000C947E000C947E0028
:100060000C947E000C947E0000000000230026000B
:10007000290000000008000201000003040700003E
:1000800000000000000000000000250028002B00F8
:1000900000000000240027002A00040404040404D3
:1000A0000404020202020202030303030303010227
:1000B00004081020408001020408102001020408F6
:1000C000102011241FBECFEFD8E0DEBFCDBF11E05E
:1000D000A0E0B1E0ECE0F6E002C005900D92AE3198
:1000E000B107D9F721E0AEE1B1E001C01D92A7321E
:1000F000B207E1F70E94C9010C9404030C940000BC
:10010000833081F028F4813099F08230A9F008958D
:100110008730A9F08830C9F08430B1F48091800034
:100120008F7D03C0809180008F7780938000089539
:1001300084B58F7784BD089584B58F7DFBCF809182
:10014000B0008F778093B00008958091B0008F7DCC
:10015000F9CF3FB7F8948091230190912401A091A9
:100160002501B091260126B5A89B05C02F3F19F0A7
:100170000196A11DB11D3FBFBA2FA92F982F882727
:10018000BC01CD01620F711D811D911D42E0660F02
:10019000771F881F991F4A95D1F708950C94A900DD
:1001A00081E00895CF92DF92EF92FF920F931F9319
:1001B000CF93DF93EC018A819B81DC01ED91FC916F
:1001C0000190F081E02D0995EC81FD81C080D18006
:1001D000E280F3800E811F8128853985AB01BC0147
:1001E0004C195D096E097F094017510762077307B3
:1001F00010F3D701C601800F911FA21FB31F808388
:100200009183A283B383DF91CF911F910F91FF90D0
:10021000EF90DF90CF9008950F931F93CF93DF93CC
:10022000FC01228133813327F901EE58FF4F84917D
:10023000F901E255FF4FD491F901E656FF4FC49101
:10024000CC23A9F08B0181110E948000EC2FF0E0FB
:10025000EE0FFF1FEA57FF4FA591B4918FB7F894A7
:10026000EC91012B49F4D095DE23DC938FBFDF9115
:10027000CF911F910F910895DE2BF7CF0F931F930E
:10028000CF93DF938C01EB0161E070E00E940C01E1
:10029000CE010E94D20070E060E0C8010E940C0113
:1002A000CE01DF91CF911F910F910C94D200CF938B
:1002B000DF93FC01228133813327F901EE58FF4F90
:1002C0008491F901E255FF4FD491F901E656FF4FB1
:1002D000C491CC2379F081110E948000EC2FF0E0D2
:1002E000EE0FFF1FE859FF4FA591B491EC91ED235C
:1002F00081E009F480E08170DF91CF9108951F9231
:100300000F920FB60F9211242F933F938F939F93C9
:10031000AF93BF9380911F0190912001A091210183
:10032000B091220130911E0123E0230F2D3758F5A3
:100330000196A11DB11D20931E0180931F01909372
:100340002001A0932101B09322018091230190917B
:100350002401A0912501B09126010196A11DB11D96
:100360008093230190932401A0932501B09326014B
:10037000BF91AF919F918F913F912F910F900FBEA1
:100380000F901F90189526E8230F0296A11DB11D0E
:10039000D2CFCF93DF93CDB7DEB7A6970FB6F89441
:1003A000DEBF0FBECDBF789484B5826084BD84B5B6
:1003B000816084BD85B5826085BD85B5816085BD60
:1003C00080916E00816080936E0010928100809118
:1003D00081008260809381008091810081608093A0
:1003E0008100809180008160809380008091B100C5
:1003F00084608093B1008091B00081608093B000F0
:1004000080917A00846080937A0080917A00826083
:1004100080937A0080917A00816080937A00809145
:100420007A00806880937A001092C10086E191E0A2
:100430009A83898380E191E09C838B8384E091E0BF
:100440009E838D8385E090E098878F83E3EBF0E0D7
:100450002491EFE9F0E084918823C9F090E0880FBF
:10046000991FFC01E057FF4F45915491FC01EA5759
:10047000FF4FA591B4919FB7F894FA018081209520
:10048000822380838C91E22FE823EC939FBF8AE044
:1004900091E09A8789878DE090E09C878B87EBEBD2
:1004A000F0E02491E7EAF0E08491882399F090E06D
:1004B000880F991FFC01E057FF4FA591B491FC01F3
:1004C000EA57FF4F859194918FB7F894EC91E22B06
:1004D000EC938FBF8E010D5F1F4F1E01F3E22F0EB5
:1004E000311C80EAC82E86E8D82EEE24E394F12C45
:1004F00090EE892E93E9992E94E0A92EB12C1AA39F
:1005000009A30E94A9006BA37CA38DA39EA389A12C
:100510009AA12CE131E0388F2F8B9A8F898F3C8EF6
:100520002B8ECD8EDE8EEF8EF8A23E872D87988B98
:100530008F873A8A298A8B8A9C8AAD8ABE8ABE01B5
:10054000695E7F4FCE0109960E943E01BE01695E41
:100550007F4FCE0109960E943E01BE01695E7F4F2A
:10056000CE0109960E943E01CE010D960E94D20056
:10057000BE01635F7F4FCE0109960E943E01BE011E
:10058000635F7F4FCE0109960E943E01BE01635F0B
:100590007F4FCE0109960E943E01CE010D960E942A
:1005A000D200BE01695E7F4FCE0109960E943E01D6
:1005B000BE01695E7F4FCE0109960E943E01BE01D9
:1005C000695E7F4FCE0109960E943E01CE010D96D5
:1005D0000E94D200EB81FC810190F081E02DC801E6
:1005E00009952B013C01EB81FC810190F081E02D0C
:1005F000C801099564197509860997096034724420
:0C0600008F40910580F37BCFF894FFCF72
:10060C00000000005701000000000C010000000079
:0E061C00CE0000000000D00000000000D20060
:00000001FF
