:100000000C9461000C947E000C947E000C947E0095
:100010000C947E000C947E000C947E000C947E0068
:100020000C947E000C947E000C947E000C947E0058
:100030000C947E000C947E000C947E000C947E0048
:100040000C949C010C947E000C947E000C947E0019
:100050000C947E000C947E000C947E000C947E0028
:100060000C947E000C947E0000000000230026000B
:10007000290000000008000201000003040700003E
:1000800000000000000000000000250028002B00F8
:1000900000000000240027002A00040404040404D3
:1000A0000404020202020202030303030303010227
:1000B00004081020408001020408102001020408F6
:1000C000102011241FBECFEFD8E0DEBFCDBF11E05E
:1000D000A0E0B1E0E4E5F6E002C005900D92AE319B
:1000E000B107D9F721E0AEE1B1E001C01D92A7321E
:1000F000B207E1F70E94E6010C9428030C9400007B
:10010000833081F028F4813099F08230A9F008958D
:100110008730A9F08830C9F08430B1F48091800034
:100120008F7D03C0809180008F7780938000089539
:1001300084B58F7784BD089584B58F7DFBCF809182
:10014000B0008F778093B00008958091B0008F7DCC
:10015000F9CF3FB7F8948091230190912401A091A9
:100160002501B091260126B5A89B05C02F3F19F0A7
:100170000196A11DB11D3FBFBA2FA92F982F882727
:10018000BC01CD01620F711D811D911D42E0660F02
:10019000771F881F991F4A95D1F708950C94A900DD
:1001A00081E008958F929F92AF92BF92CF92DF929B
:1001B000EF92FF920F931F93CF93DF93EC018A810D
:1001C0009B81DC01ED91FC910190F081E02D09957E
:1001D0000C851D852E853F85C884D984EA84FB84DF
:1001E0008C809D80AE80BF80681979098A099B093F
:1001F000601B710B820B930B6C157D058E059F05A3
:10020000F0F20C0D1D1D2E1D3F1D0C871D872E8726
:100210003F87DF91CF911F910F91FF90EF90DF907B
:10022000CF90BF90AF909F908F900895CF93DF9322
:10023000EC0188819981DC01ED91FC910190F081C4
:10024000E02D09956A837B838C839D83DF91CF9119
:1002500008950F931F93CF93DF93FC012281338185
:100260003327F901EE58FF4F8491F901E255FF4F12
:10027000D491F901E656FF4FC491CC23A9F08B012C
:1002800081110E948000EC2FF0E0EE0FFF1FEA5773
:10029000FF4FA591B4918FB7F894EC91012B49F4DD
:1002A000D095DE23DC938FBFDF91CF911F910F910B
:1002B0000895DE2BF7CF0F931F93CF93DF938C011D
:1002C000EB0161E070E00E942901CE010E94D200A2
:1002D00070E060E0C8010E942901CE01DF91CF915A
:1002E0001F910F910C94D200CF93DF93FC012281D8
:1002F00033813327F901EE58FF4F8491F901E2551C
:10030000FF4FD491F901E656FF4FC491CC2379F009
:1003100081110E948000EC2FF0E0EE0FFF1FE859E2
:10032000FF4FA591B491EC91ED2381E009F480E0B9
:100330008170DF91CF9108951F920F920FB60F92A7
:1003400011242F933F938F939F93AF93BF938091EB
:100350001F0190912001A0912101B09122013091C3
:100360001E0123E0230F2D3758F50196A11DB11D65
:1003700020931E0180931F0190932001A0932101DF
:10038000B09322018091230190912401A091250135
:10039000B09126010196A11DB11D80932301909378
:1003A0002401A0932501B0932601BF91AF919F91A5
:1003B0008F913F912F910F900FBE0F901F90189526
:1003C00026E8230F0296A11DB11DD2CFCF93DF9354
:1003D000CDB7DEB7AC970FB6F894DEBF0FBECDBF7A
:1003E000789484B5826084BD84B5816084BD85B510
:1003F000826085BD85B5816085BD80916E0081601C
:1004000080936E00109281008091810082608093C1
:1004100081008091810081608093810080918000C3
:100420008160809380008091B10084608093B100EE
:100430008091B00081608093B00080917A008460E8
:1004400080937A0080917A00826080937A00809114
:100450007A00816080937A0080917A00806880932E
:100460007A001092C10086E191E09AA389A380E10D
:1004700091E09CA38BA384E091E09EA38DA385E0F3
:1004800090E098A78FA3E3EBF0E02491EFE9F0E090
:1004900084918823C9F090E0880F991FFC01E057F0
:1004A000FF4F45915491FC01EA57FF4FA591B4913C
:1004B0009FB7F894FA0180812095822380838C91E4
:1004C000E22FE823EC939FBF8AE091E09AA789A7E7
:1004D0008DE090E09CA78BA7EBEBF0E02491E7EA9E
:1004E000F0E08491882399F090E0880F991FFC0137
:1004F000E057FF4FA591B491FC01EA57FF4F85915A
:1005000094918FB7F894EC91E22BEC938FBF8CE130
:10051000E82E81E0F82E8E010D5D1F4F90EA892EA6
:1005200096E8992EAA24A394B12C20EE422E23E91A
:10053000522E24E0622E712CFA8AE98A1C8B0B8BD6
:10054000CE0143960E941601898E9A8EAB8EBC8E88
:100550000E94A9006D8F7E8F8F8F98A3FA82E98207
:100560001C830B83CE0103960E94160149865A868E
:100570006B867C860E94A9006D877E878F87988B0B
:10058000BE016F5E7F4FCE0189960E945B01BE0166
:100590006F5E7F4FCE0189960E945B01BE016F5E48
:1005A0007F4FCE0189960E945B01CE0101960E9489
:1005B000D200BE016F5F7F4FCE0189960E945B0122
:1005C000BE016F5F7F4FCE0189960E945B01BE0125
:1005D0006F5F7F4FCE0189960E945B01CE0101962D
:1005E0000E94D200BE016F5E7F4FCE0189960E94AD
:1005F0005B01BE016F5E7F4FCE0189960E945B0159
:10060000BE016F5E7F4FCE0189960E945B01CE01D5
:1006100001960E94D2001A830983CE0101960E949E
:10062000160189819A81DC01ED91FC910190F081A4
:10063000E02D09952B813C814D815E81621B730BFE
:10064000840B950B603472448F40910550F374CF46
:04065000F894FFCF4C
:1006540000000000740100000000290100000000F7
:0E066400CE0000000000D00000000000D20018
:00000001FF
